S013000053485431315F4865726F322E73726563A1
S1130000FDC0000017C1000015C1000013C10000AD
S113001011C100000FC100000DC100000BC10000A0
S113002009C1000007C1000005C1000003C10000B0
S113003001C10000FFC00000FDC00000FBC00000C3
S1130040F9C00000F7C00000F5C00000F3C00000D4
S1130050F1C00000EFC00000EDC00000EBC00000E4
S1130060E9C00000E7C00000E5C00000E3C00000F4
S1130070E1C00000DFC00000DDC00000DBC0000004
S1130080D9C00000D7C00000D5C00000D3C0000014
S1130090D1C00000CFC00000CDC00000CBC0000024
S11300A0C9C00000C7C00000C5C00000C3C0000034
S11300B0C1C00000BFC00000BDC00000BBC0000044
S11300C0B9C00000B7C00000B5C00000B3C0000054
S11300D0B1C00000AFC00000ADC00000ABC0000064
S11300E0A9C00000A7C00000A5C00000A3C0000074
S11300F0A1C000009FC000009DC000009BC0000084
S113010099C0000097C0000095C0000093C0000093
S113011091C000008FC000008DC000008BC00000A3
S113012089C0000087C0000085C0000083C00000B3
S113013081C000007FC000007DC000007BC00000C3
S113014079C0000077C0000075C0000073C00000D3
S113015071C000006FC000006DC000006BC00000E3
S113016069C0000067C0000065C0000063C00000F3
S113017061C000005FC000005DC000005BC0000003
S113018059C0000057C0000055C0000053C0000013
S113019051C000004FC000004DC000004BC0000023
S11301A049C0000047C0000045C0000043C0000033
S11301B041C000003FC000003DC000003BC0000043
S11301C039C0000037C0000035C0000033C0000053
S11301D031C000002FC000002DC000002BC0000063
S11301E029C0000027C0000025C0000023C0000073
S11301F021C000001FC000001DC0000011241FBE4C
S1130200CFEFCDBFDFE2DEBF10E2A0E0B0E2E4EE6C
S1130210F2E102C005900D92AA31B107D9F720E2AC
S1130220AAE1B0E201C01D92A038B207E1F7B1D350
S11302300C947009E5CEFC01818185FFFDCF6083BC
S113024080E090E008954F925F926F927F928F9238
S11302509F92AF92BF92CF92DF92EF92FF920F9351
S11302601F93CF93DF93EC014A015B01280139010D
S1130270D901C801689412F8B695A7959795879502
S11302801694D1F7B901A801032E36E17695679546
S1130290579547953A95D1F7302D2C8122FD08C00A
S11302A0B695A795979587957695679557954795AC
S11302B088159905AA05BB0508F4A2C084169506FD
S11302C0A606B70608F49EC08C8182FD04C0880C83
S11302D0991CAA1CBB1CC301B201A501940125D51C
S11302E02F3F31054105510508F48EC0C12CD12C96
S11302F07601CA9419EF05C02C153D054E055F051E
S113030068F0CC0CDD1CEE1CFF1C1D3F14F468943B
S1130310C0F81F5F173081F7212F4EC0212F112302
S11303200CF04AC0D501C401880F991FAA1FBB1F36
S1130330880F991FAA1FBB1F880F991FAA1FBB1FD5
S1130340481A590A6A0A7B0A1E3FECF46DEF7FEFE4
S1130350611B710917FD739504C0440C551C661C80
S1130360771C6A95D2F7D501C401B695A7959795E0
S11303708795BC01CD01640D751D861D971DA501D2
S11303809401D3D434C023E0210FD501C40104C0A7
S1130390880F991FAA1FBB1F2A95D2F79C01AD0194
S11303A0B695A79597958795BC01CD01640D751DEC
S11303B0861D971DBAD41BC02D5FD501C40104C08E
S11303C0880F991FAA1FBB1F2A95D2F79C01AD0164
S11303D0B695A79597958795BC01CD01640D751DBC
S11303E0861D971DA2D42150310941095109832F3B
S11303F08F701295107F182B1F832E8381E018C0F5
S113040080E016C080E014C0D501C401880F991F94
S1130410AA1FBB1F880F991FAA1FBB1F880F991FF4
S1130420AA1FBB1F481A590A6A0A7B0A19EF8ECF02
S1130430DF91CF911F910F91FF90EF90DF90CF90BC
S1130440BF90AF909F908F907F906F905F904F90F0
S11304500895E0E5F0E0808182608083E1E5F0E0EA
S1130460808181FFFDCF88ED84BF81E080934000CF
S1130470E0E5F0E08081827E8083089588E08093C7
S113048081068093850680936106809365060895AE
S11304900F931F93CF93DF93C0EAD9E08D818F73BD
S11304A08D8383E08D8300E018E428EE31E040E0A2
S11304B052EC61E070E080EA99E0C5DE8C818860EE
S11304C08C838C8180618C83DF91CF911F910F91FC
S11304D008950F931F93CF93DF931816190664F4AE
S11304E0CBE1D0E28C01055E1F4D699180EA99E071
S11304F0A2DEC017D107C9F7DF91CF911F910F91E9
S1130500089528E030E090E8E0E0F6E0492F482341
S113051021F040814F7D408303C04081406240838D
S113052044814061448345E34A95F1F700004481E6
S11305304F7E44839695215031092115310531F7B9
S1130540E0E0F6E080818F7D808384818061848314
S1130550808594819F7E948380720895582FE0E073
S1130560F6E080818F7D808328E030E080E090E8B1
S1130570448140614483408545FD892B44814F7EFD
S113058044839695215031092115310589F751305D
S113059021F490910006906203C0909100069F7D23
S11305A0E0E0F6E0908394819061948395E39A95DA
S11305B0F1F7000094819F7E948390819F7D9083C6
S11305C080931A200895E0E0F6E080818F7D808397
S11305D084818F7E84838AE08A95F1F700C08481C8
S11305E0806184838AE08A95F1F700C0808180620B
S11305F080838AE08A95F1F700C084818F7E8483AA
S113060085E38A95F1F700008481806184838AE020
S11306108A95F1F700C080818F7D80838AE08A9576
S1130620F1F700C084818F7E84830895E0E0F6E0D2
S113063080818F7D808384818F7E848389E094810F
S1130640906194839AE09A95F1F700C094819F7E1B
S113065094838150A1F7B7CF0895E8DF8EE151CF9D
S11306600895EF92FF920F931F93CF93DF93EC01C2
S11306707B01142FA8DF112319F0113041F00EC0B3
S113068083E03FDF082F112707FD109509C085E09F
S113069038DF082F112707FD109502C000E010E095
S11306A04FEF5FEFE0E0F6E06EEF9FEF0DC0808567
S11306B085FF05C02150310921153105C1F741508D
S11306C051094115510531F0808585FFF8CF262F5A
S11306D0392FEDCFE0E0F6E0808585FF02C00F5FA3
S11306E01F4F81E03BDF898381E038DF888381E02D
S11306F035DFF701808380937F20802FDF91CF91B6
S11307001F910F91FF90EF9008952F923F924F9277
S11307105F926F927F928F929F92AF92BF92CF928D
S1130720DF92EF92FF920F931F93CF93DF9300D04A
S113073000D0CDB7DEB78C011B012AE037ED43E2D0
S11307405CE3FB0160817181828193818BD22DEC0A
S11307503CEC4EE152E436D12B013C01F801C0805F
S1130760D180E280F38020E030E048EC51E42AD1EB
S11307704B015C012CEA35EC47EA58E3C701B601AA
S113078071D22AE037ED43E25CE31DD19B01AC0159
S1130790C501B40167D24B015C0122EA37EE4BE399
S11307A056EBC701B6015ED29B01AC01C701B6018D
S11307B059D269837A838B839C8324E533EE45E2A3
S11307C05DE3C701B6014ED29B01AC0169817A8118
S11307D08B819C81F8D020E030E040E850E4F2D0F6
S11307E09B01AC01C501B401EED06B017C0120E09A
S11307F030E048EC52E432D2181654F02DEC3CECC4
S11308004CEC5DE3C701B60142D1882354F012C019
S11308100F2EC12CD12CF8ECEF2EF2E4FF2EF02D8C
S113082009C00F2EFDECCF2EFCECDF2EED2CFDE3EA
S1130830FF2EF02DF1014082518262827382F80111
S1130840C082D182E282F3822496CDBFDEBFDF91E3
S1130850CF911F910F91FF90EF90DF90CF90BF90B9
S1130860AF909F908F907F906F905F904F903F904C
S11308702F900895CF92DF92EF92FF920F931F93E0
S1130880CF93DF93CDB7DEB72997CDBFDEBF1982F3
S11308901A821D821E8241E0BE01675F7F4FCE0136
S11308A00196DFDE182F90911A2080917F209813F3
S11308B0BDDE40E0BE01675F7F4FCE010596D1DE0D
S11308C0180F90911A2080917F209813AFDE112386
S11308D011F0ACDE52C069817A8180E090E00CD1E5
S11308E069837A838B839C836D817E8180E090E031
S11308F003D16D837E838F839887BE016B5F7F4FA7
S1130900CE01019602DF20E030E048EC52E4698138
S11309107A818B819C81A6D1BED06B01EE24D7FC59
S1130920E094FE2C20E030E048EC52E46D817E81BE
S11309308F81988597D1AFD0CB01AA2797FDA09539
S1130940BA2FBF93AF939F938F9380E090E29F93CE
S11309508F930BE110E21F930F9309D2BADDFF923C
S1130960EF92DF92CF928CE090E29F938F931F934C
S11309700F93FDD1AEDDCDBFDEBF2996CDBFDEBF67
S1130980DF91CF911F910F91FF90EF90DF90CF9067
S113099008955FDDE2EAF0E08081876080836EDDA8
S11309A077DDE0E0F6E080E38083148256DE2FEF0B
S11309B081EE94E0215080409040E1F700C00000B7
S11309C059DFF5CF5058BB27AA270ED00DC1FED052
S11309D030F003D120F031F49F3F11F41EF4F3C042
S11309E00EF4E095E7FBE9C0E92F0FD180F3BA17C5
S11309F0620773078407950718F071F49EF527C101
S1130A000EF4E0950B2EBA2FA02D0B01B901900125
S1130A100C01CA01A0011124FF27591B99F0593F69
S1130A2050F4503E68F11A16F040A22F232F342FB1
S1130A304427585FF3CF469537952795A795F040FF
S1130A405395C9F77EF41F16BA0B620B730B840B14
S1130A50BAF09150A1F0FF0FBB1F661F771F881FCC
S1130A60C2F70EC0BA0F621F731F841F48F4879524
S1130A7077956795B795F7959E3F08F0B3CF939513
S1130A80880F08F09927EE0F97958795089571D0F0
S1130A9008F481E0089504D06894B111D9C0089590
S1130AA0BCD088F09F5790F0B92F9927B751A0F088
S1130AB0D1F0660F771F881F991F1AF0BA95C9F7EE
S1130AC012C0B13081F0C3D0B1E00895C0C0672F27
S1130AD0782F8827B85F39F0B93FCCF3869577959E
S1130AE06795B395D9F73EF4909580957095619587
S1130AF07F4F8F4F9F4F0895E89409C097FB3EF4B2
S1130B0090958095709561957F4F8F4F9F4F992356
S1130B10A9F0F92F96E9BB279395F69587957795D4
S1130B206795B795F111F8CFFAF4BB0F11F460FF94
S1130B301BC06F5F7F4F8F4F9F4F16C0882311F0EC
S1130B4096E911C0772321F09EE8872F762F05C000
S1130B50662371F096E8862F70E060E02AF09A959B
S1130B60660F771F881FDAF7880F9695879597F990
S1130B700895990F0008550FAA0BE0E8FEEF16162A
S1130B801706E807F907C0F012161306E407F5077D
S1130B9098F0621B730B840B950B39F40A2661F0F1
S1130BA0232B242B252B21F408950A2609F4A14094
S1130BB0A6958FEF811D811D089597F99F6780E8A1
S1130BC070E060E008959FEF80EC089500240A949B
S1130BD01616170618060906089500240A94121614
S1130BE01306140605060895092E0394000C11F447
S1130BF0882352F0BB0F40F4BF2B11F460FF04C0F4
S1130C006F5F7F4F8F4F9F4F089557FD9058440F4C
S1130C10551F59F05F3F71F04795880F97FB991F57
S1130C2061F09F3F79F08795089512161306140614
S1130C30551FF2CF4695F1DF08C0161617061806A1
S1130C40991FF1CF86957105610508940895E8947C
S1130C50BB2766277727CB0197F908958ADF08F425
S1130C608FEF08950BD0C0CFB1DF28F0B6DF18F0B6
S1130C70952309F0A2CFA7CF1124EACFC6DFA0F3B2
S1130C80959FD1F3950F50E0551F629FF001729F1D
S1130C90BB27F00DB11D639FAA27F00DB11DAA1F3C
S1130CA0649F6627B00DA11D661F829F2227B00D89
S1130CB0A11D621F739FB00DA11D621F839FA00D14
S1130CC0611D221F749F3327A00D611D231F849F64
S1130CD0600D211D822F762F6A2F11249F575040BB
S1130CE08AF0E1F088234AF0EE0FFF1FBB1F661F56
S1130CF0771F881F91505040A9F79E3F510570F00F
S1130D005CCFA6CF5F3FECF3983EDCF386957795F6
S1130D106795B795F795E7959F5FC1F7FE2B880F09
S1130D20911D9695879597F90895A1E21A2EAA1B0D
S1130D30BB1BFD010DC0AA1FBB1FEE1FFF1FA21787
S1130D40B307E407F50720F0A21BB30BE40BF50B84
S1130D50661F771F881F991F1A9469F7609570950D
S1130D60809590959B01AC01BD01CF010895AEE043
S1130D70B0E0ECEBF6E091C20D891E8986E08C832D
S1130D8009831A838FEF9FE78D839E83AE01475EAD
S1130D905F4F6F89788DCE01019608D0EF81F88579
S1130DA0E00FF11F10822E96E4E090C2ACE0B0E0B8
S1130DB0EBEDF6E064C27C016B018A01FC01168252
S1130DC01782838181FFB0C1CE0101964C01F701E6
S1130DD09381F60193FD859193FF81916F0188239F
S1130DE009F49EC1853239F493FD859193FF819175
S1130DF06F01853221F4B70190E0B1D1E8CF512CD5
S1130E00312C20E02032A0F48B3269F030F48032AF
S1130E1059F0833269F420612CC08D3239F080336B
S1130E2039F4216026C02260246023C0286021C0D8
S1130E3027FD27C030ED380F3A3078F426FF06C07E
S1130E40FAE05F9E300D1124532E13C08AE0389EC1
S1130E50300D1124332E20620CC08E3221F426FD75
S1130E605FC1206406C08C3611F4206802C0883645
S1130E7041F4F60193FD859193FF81916F018111F6
S1130E80C1CF982F9F7D9554933028F40C5F1F4F4A
S1130E90FFE3F9830DC0833631F0833771F0833576
S1130EA009F057C021C0F801808189830E5F1F4F6C
S1130EB044244394512C540114C03801F2E06F0EC1
S1130EC0711CF801A080B18026FF03C0652D70E07D
S1130ED002C06FEF7FEFC5012C8736D12C0183014F
S1130EE02C852F77222E16C03801F2E06F0E711C6C
S1130EF0F801A080B18026FF03C0652D70E002C018
S1130F006FEF7FEFC5012C8714D12C012C8520684D
S1130F10222E830123FC19C0832D90E04816590624
S1130F20A0F4B70180E290E01AD13A94F5CFF5012C
S1130F3027FC859127FE81915F01B70190E00FD1D5
S1130F4031103A94F1E04F1A51084114510479F7E1
S1130F50DEC0843611F0893631F5F80127FF07C069
S1130F6060817181828193810C5F1F4F08C0608111
S1130F707181882777FD8095982F0E5F1F4F2F76FC
S1130F80B22E97FF09C090958095709561957F4F1B
S1130F908F4F9F4F2068B22E2AE030E0A40111D178
S1130FA0A82EA81843C0853729F42F7EB22E2AE034
S1130FB030E025C0F22FF97FBF2E8F36C1F018F430
S1130FC0883579F0ADC0803719F0883721F0A8C092
S1130FD02F2F2061B22EB4FE0DC08B2D8460B82E4D
S1130FE009C024FF0AC09F2F9660B92E06C028E0CE
S1130FF030E005C020E130E002C020E132E0F80139
S1131000B7FE07C060817181828193810C5F1F4F9D
S113101006C06081718180E090E00E5F1F4FA401E3
S1131020D0D0A82EA818FB2DFF77BF2EB6FE0BC07C
S11310302B2D2E7FA51450F4B4FE0AC0B2FC08C0B8
S11310402B2D2E7E05C07A2C2B2D03C07A2C01C0AB
S1131050752C24FF0DC0FE01EA0DF11D8081803343
S113106011F4297E09C022FF06C07394739404C04E
S1131070822F867809F0739423FD12C020FF06C0E6
S11310805A2C731418F4530C5718732C731460F4FB
S1131090B70180E290E02C8762D073942C85F6CF60
S11310A0731410F4371801C0312C24FF11C0B70198
S11310B080E390E02C8753D02C8522FF16C021FFBB
S11310C003C088E590E002C088E790E0B7010CC057
S11310D0822F867851F021FD02C080E201C08BE2AC
S11310E027FD8DE2B70190E03AD0A51430F4B701A2
S11310F080E390E034D05A94F8CFAA94F401EA0D36
S1131100F11D8081B70190E02AD0A110F6CF3320E1
S113111009F45DCEB70180E290E021D03A94F7CF94
S1131120F7018681978102C08FEF9FEF2C96E2E151
S1131130BFC0FC010590615070400110D8F7809544
S113114090958E0F9F1F0895FC016150704001908F
S11311500110D8F7809590958E0F9F1F08950F93D7
S11311601F93CF93DF93182F092FEB018B8181FD00
S113117003C08FEF9FEF20C082FF10C04E815F81BC
S11311802C813D81421753077CF4E881F9819F014A
S11311902F5F3F4F28833983108306C0E885F98584
S11311A0812F0995892B29F72E813F812F5F3F4F8E
S11311B02E833F83812F902FDF91CF911F910F9129
S11311C00895FA01AA27283051F1203181F1E894D9
S11311D06F936E7F6E5F7F4F8F4F9F4FAF4FB1E026
S11311E03ED0B4E03CD0670F781F891F9A1FA11D21
S11311F0680F791F8A1F911DA11D6A0F711D811D22
S1131200911DA11D20D009F468943F912AE0269FE6
S113121011243019305D3193DEF6CF010895462F45
S11312204770405D4193B3E00FD0C9F7F6CF462F26
S11312304F70405D4A3318F0495D31FD405241938F
S113124002D0A9F7EACFB4E0A6959795879577954C
S11312506795BA95C9F700976105710508959B01D3
S1131260AC010A2E06945795479537952795BA955C
S1131270C9F7620F731F841F951FA01D08952F9235
S11312803F924F925F926F927F928F929F92AF9212
S1131290BF92CF92DF92EF92FF920F931F93CF935F
S11312A0DF93CDB7DEB7CA1BDB0BCDBFDEBF09941E
S11312B02A88398848885F846E847D848C849B84E2
S11312C0AA84B984C884DF80EE80FD800C811B81F0
S11312D0AA81B981CE0FD11DCDBFDEBFED01089526
S10712E0F894FFCFAC
S11312E454656D703A20256C64200D0048756D6951
S10D12F43A20256C64200D0D000063
S9030000FC
