:10000000FDC0000016C1000014C1000012C10000B4
:1000100010C100000EC100000CC100000AC10000A8
:1000200008C1000006C1000004C1000002C10000B8
:1000300000C10000FEC00000FCC00000FAC00000CB
:10004000F8C00000F6C00000F4C00000F2C00000DC
:10005000F0C00000EEC00000ECC00000EAC00000EC
:10006000E8C00000E6C00000E4C00000E2C00000FC
:10007000E0C00000DEC00000DCC00000DAC000000C
:10008000D8C00000D6C00000D4C00000D2C000001C
:10009000D0C00000CEC00000CCC00000CAC000002C
:1000A000C8C00000C6C00000C4C0000071C4000089
:1000B000C0C00000BEC00000BCC00000BAC000004C
:1000C000B8C00000B6C00000B4C00000B2C000005C
:1000D000B0C00000AEC00000ACC00000AAC000006C
:1000E000A8C00000A6C00000A4C00000A2C000007C
:1000F000A0C000009EC000009CC000009AC000008C
:1001000098C0000096C0000094C0000092C000009B
:1001100090C000008EC000008CC000008AC00000AB
:1001200088C0000086C0000084C0000082C00000BB
:1001300080C000007EC000007CC000007AC00000CB
:1001400078C0000076C0000074C0000072C00000DB
:1001500070C000006EC000006CC000006AC00000EB
:1001600068C0000066C0000064C0000062C00000FB
:1001700060C000005EC000005CC000005AC000000B
:1001800058C0000056C0000054C0000052C000001B
:1001900050C000004EC000004CC000004AC000002B
:1001A00048C0000046C0000044C0000042C000003B
:1001B00040C000003EC000003CC000003AC000004B
:1001C00038C0000036C0000034C0000032C000005B
:1001D00030C000002EC000002CC000002AC000006B
:1001E00028C0000026C0000024C0000022C000007B
:1001F00020C000001EC000001CC0000011241FBE53
:10020000CFEFCDBFDFE2DEBF10E2A0E0B0E2EEE173
:10021000FAE002C005900D92A030B107D9F720E2B4
:10022000A0E0B0E201C01D92A632B207E1F792D37E
:10023000F4C3E6CECF92DF92EF92FF920F931F931B
:10024000CF93DF93EC016A017B01DB01CA010197C7
:10025000A109B109BC01CD01600F711F821F931F5D
:10026000A7019601B8D32138310541055105F8F4AD
:10027000213460F4213260F4213160F4293060F4DB
:10028000253060F4233060F090E00BC093E009C0AB
:1002900092E007C092E805C091E003C091E801C078
:1002A00090E888818C77892B888381E001C08FEF6B
:1002B000DF91CF911F910F91FF90EF90DF90CF9042
:1002C00008954F925F926F927F928F929F92AF921A
:1002D000BF92CF92DF92EF92FF920F931F93CF9333
:1002E000DF93EC014A015B0128013901D901C80102
:1002F000689412F8B695A795979587951694D1F7B7
:10030000B901A801032E36E1769567955795479573
:100310003A95D1F7302D2C8122FD08C0B695A795CE
:10032000979587957695679557954795881599057B
:10033000AA05BB0508F4A2C084169506A606B70652
:1003400008F49EC08C8182FD04C0880C991CAA1CF4
:10035000BB1CC301B201A50194013DD32F3F310560
:100360004105510508F48EC0C12CD12C7601CA94E8
:1003700019EF05C02C153D054E055F0568F0CC0C46
:10038000DD1CEE1CFF1C1D3F14F46894C0F81F5FB9
:10039000173081F7212F4EC0212F11230CF04AC0B6
:1003A000D501C401880F991FAA1FBB1F880F991F71
:1003B000AA1FBB1F880F991FAA1FBB1F481A590AE3
:1003C0006A0A7B0A1E3FECF46DEF7FEF611B710937
:1003D00017FD739504C0440C551C661C771C6A9568
:1003E000D2F7D501C401B695A79597958795BC011D
:1003F000CD01640D751D861D971DA5019401EBD2DD
:1004000034C023E0210FD501C40104C0880F991F17
:10041000AA1FBB1F2A95D2F79C01AD01B695A795DF
:1004200097958795BC01CD01640D751D861D971D9F
:10043000D2D21BC02D5FD501C40104C0880F991F03
:10044000AA1FBB1F2A95D2F79C01AD01B695A795AF
:1004500097958795BC01CD01640D751D861D971D6F
:10046000BAD22150310941095109832F8F70129559
:10047000107F182B1F832E8381E018C080E016C0E8
:1004800080E014C0D501C401880F991FAA1FBB1FAB
:10049000880F991FAA1FBB1F880F991FAA1FBB1F78
:1004A000481A590A6A0A7B0A19EF8ECFDF91CF9159
:1004B0001F910F91FF90EF90DF90CF90BF90AF9082
:1004C0009F908F907F906F905F904F900895E0E5A0
:1004D000F0E0808182608083E1E5F0E0808181FF4F
:1004E000FDCF88ED84BF81E080934000E0E5F0E03F
:1004F0008081827E80830895E1E8F6E088E0808351
:10050000A1E6B6E08C938093650680EB8C9382E045
:100510008083E0E9F6E0808182608083E9E8F6E0AC
:10052000808181608083EAE8F6E080818160808359
:1005300008950F931F9300E018E428EE31E040E0A7
:1005400052E16AE770E080EC99E074DEE0ECF9E0FB
:100550008081806180838081806480831F910F917E
:1005600008950F931F93CF93DF93C0EAD9E08D8155
:100570008F738D8383E08D8300E018E428EE31E0F3
:1005800040E052EC61E070E080EA99E09ADE8C8114
:1005900088608C838C8180618C83DF91CF911F91E7
:1005A0000F910895EF92FF920F931F93CF93DF93D4
:1005B000CDB7DEB7FE013996619170E016161706C9
:1005C00004F580E090E02DE030E2AEE0B0E2AF0173
:1005D0004E5F5F4FF08001811F2D100FF901E08009
:1005E0001E0D10831C91E12FF0E0E050F04EF382DD
:1005F00004831E5F1C9301968617970714F4FA0173
:10060000E6CFE0910E2081E08E0F80930320F0E092
:10061000E050F04E80910D2081958383DF91CF9142
:100620001F910F91FF90EF900895E1E0F0E28CE0D0
:1006300090E21192E817F907E1F7E0E1F0E280813A
:10064000918101968083918380930C2010920D20DC
:1006500092E090930E202FEF209301202093022010
:1006600090930320809304200895E0E8F6E082E070
:10067000868385838AE68A95F1F700C082E08683C7
:100680000895E0ECF9E0838382818823ECF7E0ECC5
:10069000F9E0838108951F93CF93DF93C0E6D6E0FE
:1006A00010E11E83EEDF8FEFECDF1D83DF91CF9132
:1006B0001F910895FF920F931F93CF93DF93F62E10
:1006C000C0E6D6E010E11E83DCDF082F8F2DD9DFD6
:1006D0001D83802FDF91CF911F910F91FF9008957F
:1006E000682F6F7785E2E6CF0895CF93C82F682FE4
:1006F00084E2E0DF6C2F81E2DDDFCF91089563E0DB
:1007000083E2D8CF089560E787E2D4CF0895DF92DF
:10071000EF92FF920F931F93CF93DF937B018A0198
:1007200090E1E0E6F6E09683ACDFD82E10161106D5
:1007300044F4E7010E0D1F1D8991A3DFC017D107F7
:10074000D9F780E1E0E6F6E085838D2DDF91CF914A
:100750001F910F91FF90EF90DF900895EF92FF921D
:100760000F931F93CF93DF93F82EEB018A01E22EB4
:1007700082E091DF41E050E00F2C02C0440F551F92
:100780000A94E2F7682F642B82E294DF81E18F0DF7
:100790006E2D80628FDF8AE08F0DA801BE0180621E
:1007A000B6DFDF91CF911F910F91FF90EF900895E9
:1007B000AB01BC0180E3ABCF0895CF92DF92EF9203
:1007C000FF920F931F93CF93DF93F82ED62E142F03
:1007D000E90180E08ADF1160612F6C2986E26ADF1F
:1007E000802F8DDF112707FD10952E2DA801BE014A
:1007F00080E0B4DF8D2D74DFB801CE01D9DF6F2D1D
:100800006A6080E257DF8FED9EE20197F1F700C04A
:100810000000DF91CF911F910F91FF90EF90DF903B
:10082000CF900895AB01BC0180EA71CF08951F936A
:10083000CF93DF93C0E6D6E010E11E8381EE21DF87
:100840001D83DF91CF911F9108951F93CF93DF9365
:10085000C0E6D6E010E11E8382EE13DF1D83DF9138
:10086000CF911F910895CF92EF920F931F93CF9343
:10087000DF9386E280931D2082E280931E2083E333
:1008800080931F2084E48093202085E5809321209D
:1008900082E0E0E8F6E086832AE62A95F1F700C0D8
:1008A0008FEF93EC29E0815090402040E1F700C0A9
:1008B000000029DFBCDFC9DFC0E8D6E012E01E83FC
:1008C0000F2EF6E0CF2EF02D0F2EFBE0EF2EF02DA9
:1008D00005E02DE130E240E261E080E06EDF1D8363
:1008E0008FE094E00197F1F700C000001092102013
:1008F00010921120DF91CF911F910F91EF90CF9027
:10090000089545E050E06DE170E28AE200DF65E0C5
:1009100070E08DE190E24CDF6BE070E081E090E20E
:1009200081DFA3CE089560E787E2C4DE85FF04C0BF
:1009300098E0E0E8F6E0978384FD79CF0895C7DD7D
:10094000E2EAF0E0808187608083D6DD0ADE789479
:10095000F0CD0895F4DF87DFC1E0D3E012E065DE7B
:10096000CF93DF93CF931F93CF93CF93DF931ADE71
:10097000C8DF2FEF83ED90E3215080409040E1F7F6
:1009800000C000008DB79EB707968DBF9EBFE7CF12
:100990001F920F920FB60F9211242F933F934F93F4
:1009A0005F936F937F938F939F93AF93BF93EF93D7
:1009B000FF93B9DFFF91EF91BF91AF919F918F911D
:1009C0007F916F915F914F913F912F910F900FBE4B
:1009D0000F901F901895A1E21A2EAA1BBB1BFD01B8
:1009E0000DC0AA1FBB1FEE1FFF1FA217B307E4070E
:1009F000F50720F0A21BB30BE40BF50B661F771F66
:100A0000881F991F1A9469F7609570958095909545
:0E0A10009B01AC01BD01CF010895F894FFCF0A
:00000001FF
