S0120000676972616E64655F36342E737265636F
S1130000F3C000000EC10000A1C500000AC1000039
S113001008C1000006C1000004C1000002C10000C4
S113002000C10000FEC00000FCC00000FAC00000D7
S1130030F8C00000F6C00000F4C00000F2C00000E8
S1130040F0C00000EEC00000ECC00000EAC00000F8
S1130050E8C00000E6C00000E4C00000E2C0000008
S1130060E0C000007DC5000085C50000DAC00000C6
S1130070D8C00000D6C00000D4C00000D2C0000028
S1130080D0C00000CEC00000CCC00000CAC0000038
S1130090C8C00000C6C00000C4C00000C2C0000048
S11300A0C0C00000BEC00000BCC0000021C50000EC
S11300B0B8C00000B6C00000B4C00000B2C0000068
S11300C0B0C00000AEC00000ACC00000AAC0000078
S11300D0A8C00000A6C00000A4C00000A2C0000088
S11300E0A0C000009EC000009CC000009AC0000098
S11300F098C0000096C0000094C0000092C00000A8
S113010090C000008EC000008CC000008AC00000B7
S113011088C0000086C0000084C0000082C00000C7
S113012080C000007EC000007CC000007AC00000D7
S113013078C00000D3C4000074C0000072C0000086
S113014070C000006EC000006CC000006AC00000F7
S113015068C0000066C0000064C0000062C0000007
S113016060C000005EC000005CC000005AC0000017
S113017058C0000056C0000054C0000052C0000027
S113018050C000004EC000004CC000004AC0000037
S113019048C0000046C0000044C0000042C0000047
S11301A040C000003EC000003CC000003AC0000057
S11301B038C0000036C0000034C0000032C0000067
S11301C030C000002EC000002CC000002AC0000077
S11301D028C0000026C0000024C0000022C0000087
S11301E020C000001EC0000011241FBECFEFCDBFF1
S11301F0DFE2DEBF10E2A0E0B0E2ECE3F1E100E018
S11302000BBF02C007900D92AA32B107D9F720E2C2
S1130210AAE2B0E201C01D92AC3BB207E1F733D4CD
S11302208BC7EECEFC01818185FFFDCF608380E02A
S113023090E008954F925F926F927F928F929F9277
S1130240AF92BF92CF92DF92EF92FF920F931F93E0
S1130250CF93DF93EC014A015B0128013901D901F5
S1130260C801689412F8B695A79597958795169442
S1130270D1F7B901A801032E36E176956795579514
S113028047953A95D1F7302D2C8122FD08C0B695BB
S1130290A79597958795769567955795479588156A
S11302A09905AA05BB0508F4A2C084169506A606FE
S11302B0B70608F49EC08C8182FD04C0880C991C8A
S11302C0AA1CBB1CC301B201A50194015DD42F3F3C
S11302D031054105510508F48EC0C12CD12C76019D
S11302E0CA9419EF05C02C153D054E055F0568F04D
S11302F0CC0CDD1CEE1CFF1C1D3F14F46894C0F8EC
S11303001F5F173081F7212F4EC0212F11230CF0CE
S11303104AC0D501C401880F991FAA1FBB1F880FAB
S1130320991FAA1FBB1F880F991FAA1FBB1F481A1A
S1130330590A6A0A7B0A1E3FECF46DEF7FEF611BDA
S1130340710917FD739504C0440C551C661C771C79
S11303506A95D2F7D501C401B695A7959795879567
S1130360BC01CD01640D751D861D971DA501940169
S11303700BD434C023E0210FD501C40104C0880F7D
S1130380991FAA1FBB1F2A95D2F79C01AD01B695F0
S1130390A79597958795BC01CD01640D751D861DA4
S11303A0971DF2D31BC02D5FD501C40104C0880F73
S11303B0991FAA1FBB1F2A95D2F79C01AD01B695C0
S11303C0A79597958795BC01CD01640D751D861D74
S11303D0971DDAD32150310941095109832F8F70B8
S11303E01295107F182B1F832E8381E018C080E0A4
S11303F016C080E014C0D501C401880F991FAA1F3C
S1130400BB1F880F991FAA1FBB1F880F991FAA1F04
S1130410BB1F481A590A6A0A7B0A19EF8ECFDF916B
S1130420CF911F910F91FF90EF90DF90CF90BF90ED
S1130430AF909F908F907F906F905F904F900895B2
S1130440E0E5F0E0808182608083E1E5F0E0808196
S113045081FFFDCF88ED84BF81E080934000E0E51B
S1130460F0E08081827E80830895CF93DF9381E0E2
S1130470809300062FEF20932006C0E4D6E08AEB99
S11304808883E0E5F6E0908193609083E9E4F6E008
S1130490908191609083EAE4F6E09081916090838A
S11304A040E656E09BEFFA019083A0E8B6E08C9317
S11304B080E996E0FC0130813360308389E896E07E
S11304C0FC013081316030838AE896E0FC013081A0
S11304D0316030832093A00688E08D8315968C9339
S11304E0FA01858382E08093E007DF91CF9108953C
S11304F00F931F93CF93DF93C0EAD8E08D818F735E
S11305008D8383E08D838B818F7C80628B8300E07D
S113051018E428EE31E040E052EC61E070E080EA5B
S113052098E088DE8C8188608C838C8180618C83E8
S1130530DF91CF911F910F910895E0ECFAE083834E
S113054082818823ECF7E0ECFAE0838108951F931D
S1130550CF93DF93C0E8D6E010E11E83EEDF8FEF88
S1130560ECDF1D83DF91CF911F910895FF920F93CC
S11305701F93CF93DF93F62EC0E8D6E010E11E83DD
S1130580DCDF082F8F2DD9DF1D83802FDF91CF91E2
S11305901F910F91FF900895682F6F7785E2E6CF42
S11305A00895CF93C82F682F84E2E0DF6C2F81E297
S11305B0DDDFCF91089563E083E2D8CF089560E74B
S11305C087E2D4CF0895DF92EF92FF920F931F93A7
S11305D0CF93DF937B018A0190E1E0E8F6E0968314
S11305E0ACDFD82E101611064CF4E7010E0D1F1DBA
S11305F08FEFA3DF8993C017D107D1F780E1E0E83B
S1130600F6E085838D2DDF91CF911F910F91FF909F
S1130610EF90DF900895AB01BC0181E6D4CF08953B
S1130620DF92EF92FF920F931F93CF93DF937B019F
S11306308A0190E1E0E8F6E096837FDFD82E101679
S1130640110644F4E7010E0D1F1D899176DFC017D2
S1130650D107D9F780E1E0E8F6E085838D2DDF91BD
S1130660CF911F910F91FF90EF90DF900895DF924B
S1130670EF92FF920F931F93CF93DF93F82EEB012A
S11306808A01D22E82E063DFE1E0F0E00F2C02C0A9
S1130690EE0FFF1F0A94E2F7682F6E2B82E266DFEB
S11306A081E18F0D6D2D806261DF81E08F1538F05F
S11306B08AE08F0DA801BE018062B2DF05C08AE026
S11306C08F0D6881806252DFDF91CF911F910F916E
S11306D0FF90EF90DF900895AB01BC0180E3A0CFC1
S11306E00895CF92DF92EF92FF920F931F93CF93CF
S11306F0DF93F82ED62E142FE90180E052DF11602B
S1130700612F6C2986E232DF802F55DF112707FD28
S113071010952E2DA801BE0180E0A9DF8D2D3CDFB0
S1130720B801CE01D9DF6F2D6A6080E21FDF8FED43
S11307309EE20197F1F700C00000DF91CF911F9175
S11307400F91FF90EF90DF90CF9008951F93CF9378
S1130750DF93C0E8D6E010E11E8381EEEEDE1D8358
S1130760DF91CF911F9108951F93CF93DF93C0E83A
S1130770D6E010E11E8382EEE0DE1D83DF91CF918F
S11307801F9108950F931F93CF93DF9318161906A3
S113079064F4CBE2D0E28C01055D1F4D699180EADF
S11307A098E040DDC017D107C9F7DF91CF911F91C1
S11307B00F910895CF92EF920F931F93CF93DF93EE
S11307C082E0E0E8F6E086832AE62A95F1F700C0A5
S11307D08FEF93EC29E0815090402040E1F700C076
S11307E00000EDDEB3DFC0DFC0E8D6E012E01E8318
S11307F00F2EF6E0CF2EF02D0F2EFBE0EF2EF02D76
S113080005E021E030E240E261E081E06ADF1D833F
S11308108FE094E00197F1F700C00000DF91CF91E1
S11308201F910F91EF90CF900895CF9360E387E2EB
S11308309DDE86FF15C080E4E0E6F6E087836BE08A
S113084070E08DE990E2E7DE60E487E28FDEC82F96
S113085087E17DDE80FFF3CF8C2F91E090939A2087
S113086085FF04C090E2E0E6F6E0978384FD6EDF46
S1130870CF910895CF92DF92EF92FF920F931F933F
S1130880CF93DF9380918F208F3F09F08BC08091AD
S113089090208F3F09F086C080919120893009F023
S11308A081C0E3E9F0E289E990E220E03191230F8D
S11308B0E817F907D9F72093BB208091992099274D
S11308C087FD9095820F911D892B09F06BC02091B3
S11308D092202093BA200F2EFBE9EF2EF0E2FF2E98
S11308E0F02D80919320F70180830CE910E2809130
S11308F09420F80180830F2EF8EACF2EF0E2DF2E49
S1130900F02D80919B2090919C20F601808391830F
S11309101F922F9386E090E29F938F93CBE2D0E2D5
S1130920DF93CF9353D12EDFF60181818F938081A2
S11309308F938FE090E29F938F93DF93CF9346D171
S113094021DF80919520F701808390919620F80112
S11309509083EAEAF0E2808391839F938F9388E106
S113096090E29F938F93DF93CF9330D10BDF8091ED
S11309709720F701808390919820F8019083ECEA06
S1130980F0E2808391839F938F9381E290E29F931F
S11309908F93DF93CF931AD1F5DEEDB7FEB7789638
S11309A0EDBFFEBFDF91CF911F910F91FF90EF90AC
S11309B0DF90CF9008950F931F9342DD56DDE2EA56
S11309C0F0E080818360808393DD00E018E428EE0A
S11309D031E040E052E16AE770E080EC9AE00CD04C
S11309E0E0ECFAE080818061808380818064808390
S11309F078941F910F910895CF92DF92EF92FF9216
S1130A000F931F93CF93DF93EC016A017B01DB010A
S1130A10CA010197A109B109BC01CD01600F711F81
S1130A20821F931FA7019601AFD0213831054105DC
S1130A305105F8F4213460F4213260F4213160F47A
S1130A40293060F4253060F4233060F090E00BC06E
S1130A5093E009C092E007C092E805C091E003C0AA
S1130A6091E801C090E888818C77892B888381E0A4
S1130A7001C08FEFDF91CF911F910F91FF90EF9005
S1130A80DF90CF90089597DF95DEDD24D3940F2E69
S1130A90FDE9EF2EF0E2FF2EF02D0FE810E2C8EA98
S1130AA0D0E280910020823061F4F701D801819175
S1130AB08D93EC17FD07D9F710920020D0922A20CD
S1130AC004C080912A20813029F4D4DE10922A2097
S1130AD0D092002080E28A95F1F7E3CF1F920F9223
S1130AE00FB60F9211240F900FBE0F901F90189500
S1130AF01F920F920FB60F9211240BB60F922F93E1
S1130B003F934F935F936F937F938F939F93AF9391
S1130B10BF93EF93FF9380910020813019F482E01A
S1130B208093002082DEFF91EF91BF91AF919F915E
S1130B308F917F916F915F914F913F912F910F9082
S1130B400BBE0F900FBE0F901F9018951F920F921F
S1130B500FB60F9211240F900FBE0F901F9018958F
S1130B601F920F920FB60F9211240F900FBE0F9089
S1130B701F9018951F920F920FB60F9211240F9089
S1130B800FBE0F901F901895A1E21A2EAA1BBB1B33
S1130B90FD010DC0AA1FBB1FEE1FFF1FA217B30745
S1130BA0E407F50720F0A21BB30BE40BF50B661F5B
S1130BB0771F881F991F1A9469F76095709580951F
S1130BC090959B01AC01BD01CF0108950F931F9334
S1130BD0CF93DF93CDB7DEB72E97CDBFDEBF0D89A0
S1130BE01E8986E08C8309831A838FEF9FE78D83A8
S1130BF09E83AE01475E5F4F6F89788DCE0101966B
S1130C000DD0EF81F885E00FF11F10822E96CDBF35
S1130C10DEBFDF91CF911F910F9108952F923F92E4
S1130C204F925F926F927F928F929F92AF92BF92F8
S1130C30CF92DF92EF92FF920F931F93CF93DF93A4
S1130C40CDB7DEB72C97CDBFDEBF7C016B018A0127
S1130C50FC0116821782838181FFB0C1CE01019607
S1130C604C01F7019381F60193FD859193FF8191E6
S1130C706F01882309F49EC1853239F493FD85916F
S1130C8093FF81916F01853221F4B70190E0C4D1C3
S1130C90E8CF512C312C20E02032A0F48B3269F0C3
S1130CA030F4803259F0833269F420612CC08D32E3
S1130CB039F0803339F4216026C02260246023C0D7
S1130CC0286021C027FD27C030ED380F3A3078F472
S1130CD026FF06C0FAE05F9E300D1124532E13C088
S1130CE08AE0389E300D1124332E20620CC08E32DF
S1130CF021F426FD5FC1206406C08C3611F42068FF
S1130D0002C0883641F4F60193FD859193FF8191E9
S1130D106F018111C1CF982F9F7D9554933028F492
S1130D200C5F1F4FFFE3F9830DC0833631F0833727
S1130D3071F0833509F057C021C0F801808189839F
S1130D400E5F1F4F44244394512C540114C03801A6
S1130D50F2E06F0E711CF801A080B18026FF03C081
S1130D60652D70E002C06FEF7FEFC5012C8749D17C
S1130D702C0183012C852F77222E16C03801F2E036
S1130D806F0E711CF801A080B18026FF03C0652D91
S1130D9070E002C06FEF7FEFC5012C8727D12C01D3
S1130DA02C852068222E830123FC19C0832D90E01A
S1130DB048165906A0F4B70180E290E02DD13A9488
S1130DC0F5CFF50127FC859127FE81915F01B701DD
S1130DD090E022D131103A94F1E04F1A51084114B5
S1130DE0510479F7DEC0843611F0893631F5F80103
S1130DF027FF07C060817181828193810C5F1F4F3F
S1130E0008C060817181882777FD8095982F0E5FD7
S1130E101F4F2F76B22E97FF09C09095809570953D
S1130E2061957F4F8F4F9F4F2068B22E2AE030E0AC
S1130E30A40124D1A82EA81843C0853729F42F7EF5
S1130E40B22E2AE030E025C0F22FF97FBF2E8F3674
S1130E50C1F018F4883579F0ADC0803719F08837BF
S1130E6021F0A8C02F2F2061B22EB4FE0DC08B2D0F
S1130E708460B82E09C024FF0AC09F2F9660B92E43
S1130E8006C028E030E005C020E130E002C020E1E7
S1130E9032E0F801B7FE07C06081718182819381DD
S1130EA00C5F1F4F06C06081718180E090E00E5F8F
S1130EB01F4FA401E3D0A82EA818FB2DFF77BF2E47
S1130EC0B6FE0BC02B2D2E7FA51450F4B4FE0AC021
S1130ED0B2FC08C02B2D2E7E05C07A2C2B2D03C00E
S1130EE07A2C01C0752C24FF0DC0FE01EA0DF11D02
S1130EF08081803311F4297E09C022FF06C07394D7
S1130F00739404C0822F867809F0739423FD12C071
S1130F1020FF06C05A2C731418F4530C5718732C62
S1130F20731460F4B70180E290E02C8775D0739459
S1130F302C85F6CF731410F4371801C0312C24FF1C
S1130F4011C0B70180E390E02C8766D02C8522FF86
S1130F5016C021FF03C088E590E002C088E790E056
S1130F60B7010CC0822F867851F021FD02C080E2C7
S1130F7001C08BE227FD8DE2B70190E04DD0A514AE
S1130F8030F4B70180E390E047D05A94F8CFAA94A4
S1130F90F401EA0DF11D8081B70190E03DD0A1106C
S1130FA0F6CF332009F45DCEB70180E290E034D06F
S1130FB03A94F7CFF7018681978102C08FEF9FEFB4
S1130FC02C96CDBFDEBFDF91CF911F910F91FF9083
S1130FD0EF90DF90CF90BF90AF909F908F907F90D5
S1130FE06F905F904F903F902F900895FC01059073
S1130FF0615070400110D8F7809590958E0F9F1F17
S11310000895FC016150704001900110D8F780955B
S113101090958E0F9F1F08950F931F93CF93DF9387
S1131020182F092FEB018B8181FD03C08FEF9FEFF8
S113103020C082FF10C04E815F812C813D81421708
S113104053077CF4E881F9819F012F5F3F4F288388
S11310503983108306C0E885F985812F0995892B8A
S113106029F72E813F812F5F3F4F2E833F83812FAE
S1131070902FDF91CF911F910F910895FA01AA2724
S1131080283051F1203181F1E8946F936E7F6E5FC7
S11310907F4F8F4F9F4FAF4FB1E03ED0B4E03CD075
S11310A0670F781F891F9A1FA11D680F791F8A1F58
S11310B0911DA11D6A0F711D811D911DA11D20D0BF
S11310C009F468943F912AE0269F11243019305D79
S11310D03193DEF6CF010895462F4770405D41936A
S11310E0B3E00FD0C9F7F6CF462F4F70405D4A33B7
S11310F018F0495D31FD4052419302D0A9F7EACF7F
S1131100B4E0A6959795879577956795BA95C9F7AD
S113111000976105710508959B01AC010A2E0694A0
S11311205795479537952795BA95C9F7620F731F59
S10F1130841F951FA01D0895F894FFCFA4
S113113C0126223344556E756D3A2025640D003218
S113114C35373A2025640D003235383A2025640DA4
S10D115C003235393A2025640D00F5
S9030000FC
